:020000040800F2
:1000000000A0002099160008011700080117000839
:100010000117000801170008011700080000000080
:1000200000000000000000000000000001170008B0
:100030000117000800000000011700089175000872
:100040000117000801170008011700080117000830
:100050000117000801170008011700080117000820
:10006000011700088B750008011700080117000828
:1000700001170008011700082923010801170008CB
:1000800001170008011700080117000801170008F0
:1000900001170008011700080117000801170008E0
:1000A000BD27010875270108CD270108652701082C
:1000B00079270108892701089927010801170008F5
:1000C00001170008011700080117000801170008B0
:1000D00001170008E9230108F523010801170008AA
:1000E00085750008011700080117000801170008AE
:1000F000B927010801170008A927010801170008FE
:1001000000000000000000000000000001170008CF
:10011000011700080117000801170008011700085F
:10012000011700080117000801170008011700084F
:10013000011700080117000800000000000000007F
:10014000011700080117000801170008000000004F
:10015000000000000000000000000000000000009F
:10016000000000000000000001170008011700084F
:10017000011700080000000000000000000000005F
:08018000000000000117000857
:1001C000844641EA000313F003036DD1403A41D362
:1001D00051F8043B40F8043B51F8043B40F8043B21
:1001E00051F8043B40F8043B51F8043B40F8043B11
:1001F00051F8043B40F8043B51F8043B40F8043B01
:1002000051F8043B40F8043B51F8043B40F8043BF0
:1002100051F8043B40F8043B51F8043B40F8043BE0
:1002200051F8043B40F8043B51F8043B40F8043BD0
:1002300051F8043B40F8043B51F8043B40F8043BC0
:1002400051F8043B40F8043B51F8043B40F8043BB0
:10025000403ABDD2303211D351F8043B40F8043B50
:1002600051F8043B40F8043B51F8043B40F8043B90
:1002700051F8043B40F8043B103AEDD20C3205D360
:1002800051F8043B40F8043B043AF9D2043208D058
:10029000D2071CBF11F8013B00F8013B01D30B88CA
:1002A00003806046704700BF082A13D38B078DD0A8
:1002B00010F003038AD0C3F10403D21ADB071CBF7A
:1002C00011F8013B00F8013B80D331F8023B20F8E4
:1002D000023B7BE7043AD9D3013A11F8013B00F81D
:1002E000013BF9D20B7803704B7843708B788370A5
:1002F00060467047000000000000000000000000A1
:1003000090F800F06DE9024520F007016FF0000C55
:1003100010F0070491F820F040F049804FF00004FD
:100320006FF00700D1E9002391F840F000F10800D8
:1003300082FA4CF2A4FA8CF283FA4CF3A2FA8CF310
:100340004BBBD1E9022382FA4CF200F10800A4FA77
:100350008CF283FA4CF3A2FA8CF3E3B9D1E90423CB
:1003600082FA4CF200F10800A4FA8CF283FA4CF302
:10037000A2FA8CF37BB9D1E9062301F1200182FABC
:100380004CF200F10800A4FA8CF283FA4CF3A2FAC2
:100390008CF3002BC6D0002A04BF04301A4612BAD0
:1003A000B2FA82F2FDE8024500EBD2007047D1E9D3
:1003B000002304F00305C4F100004FEAC50514F062
:1003C000040F91F840F00CFA05F562EA05021CBF33
:1003D00063EA050362464FF00004A9E753B94AB93E
:1003E000002908BF00281CBF4FF0FF314FF0FF303D
:1003F00001F0DEB8ADF1080C6DE904CE00F006F8AE
:10040000DDF804E0DDE9022304B070472DE9F04790
:10041000089D04468E46002B4DD18A42944669D9E8
:10042000B2FA82F252B101FA02F3C2F1200120FACB
:1004300001F10CFA02FC41EA030E94404FEA1C4819
:10044000210CBEFBF8F61FFA8CF708FB16E341EA15
:10045000034306FB07F199420AD91CEB030306F19B
:10046000FF3080F01F81994240F21C81023E6344BC
:100470005B1AA4B2B3FBF8F008FB103344EA034460
:1004800000FB07F7A7420AD91CEB040400F1FF3375
:1004900080F00A81A74240F207816444023840EAB2
:1004A0000640E41B00261DB1D4400023C5E90043EB
:1004B0003146BDE8F0878B4209D9002D00F0EF806E
:1004C0000026C5E9000130463146BDE8F087B3FAA1
:1004D00083F6002E4AD18B4202D3824200F2F98089
:1004E000841A61EB030301209E46002DE0D0C5E98C
:1004F000004EDDE702B9FFDEB2FA82F2002A40F0D8
:100500009280A1EB0C014FEA1C471FFA8CFE0126DA
:10051000200CB1FBF7F307FB131140EA01410EFB7E
:1005200003F0884208D91CEB010103F1FF3802D225
:10053000884200F2CB804346091AA4B2B1FBF7F01F
:1005400007FB101144EA01440EFB00FEA64508D942
:100550001CEB040400F1FF3102D2A64500F2BB807F
:100560000846A4EB0E0440EA03409CE7C6F12007CE
:10057000B34022FA07FC4CEA030C20FA07F401FA14
:1005800006F31C43F9404FEA1C4900FA06F3B1FB9D
:10059000F9F8200C1FFA8CFE09FB181140EA014102
:1005A00008FB0EF0884202FA06F20BD91CEB01019F
:1005B00008F1FF3A80F08880884240F28580A8F1F7
:1005C00002086144091AA4B2B1FBF9F009FB101149
:1005D00044EA014100FB0EFE8E4508D91CEB0101E7
:1005E00000F1FF346CD28E456AD90238614440EA8A
:1005F0000840A0FB0294A1EB0E01A142C846A6460A
:1006000056D353D05DB1B3EB080261EB0E0101FA92
:1006100007F722FA06F3F1401F43C5E900710026EF
:100620003146BDE8F087C2F12003D8400CFA02FC45
:1006300021FA03F3914001434FEA1C471FFA8CFE55
:10064000B3FBF7F007FB10360B0C43EA064300FB45
:100650000EF69E4204FA02F408D91CEB030300F1E3
:10066000FF382FD29E422DD9023863449B1B89B29A
:10067000B3FBF7F607FB163341EA034106FB0EF323
:100680008B4208D91CEB010106F1FF3816D28B42D0
:1006900014D9023E6144C91A46EA004638E72E469C
:1006A000284605E70646E3E61846F8E64B45A9D294
:1006B000B9EB020864EB0C0E0138A3E74646EAE703
:1006C000204694E74046D1E7D0467BE7023B6144B1
:1006D00032E7304609E76444023842E703685A00CB
:1006E0004CBF43F0004323F000431844704700BF61
:1006F0002DE9F84329B34F1E044615463E464FF0F8
:10070000000808EB060101EBD171491004EBC109A7
:100710004846FFF7E3FF0346C80008308F422044F5
:1007200009D0AB4209D8FFF7D9FF0138A8420AD255
:1007300001F10108E5E7AB4205D9884501D04E1E1D
:10074000DFE74FF000094846BDE8F883012807D0ED
:10075000022807D0044B00280CBF18460020704721
:100760000248704702487047250E0008290E00080D
:100770002D0E000830B5234B83B004468D1E3BB3CD
:1007800001A92846AFF30080E8B101992A46FFF796
:10079000AFFF0146B8B1FFF7A1FF4B68A064012B82
:1007A0002CD0002B01F1040024DBFFF797FF00237E
:1007B000C4E913030368002B11DBFFF78FFF2061EF
:1007C000002003B030BD00230920236103B030BDF9
:1007D0000D4B0E49C91AC91018460191D6E7C3F34B
:1007E0000360FFF7B3FF0028206114BF0020092039
:1007F00003B030BD0123C4E91303DBE70023236109
:100800000520DEE7000000006C6801083471010873
:100810000368DA0710B5044606D49B0700F14800C8
:1008200009D500F05BFC2368590709D51A070ED5D6
:10083000DB0613D510BD00F049FC23685907F5D439
:1008400004F1D00000F052FC23681A07F0D404F53C
:10085000A87000F053FC2368DB06EBD404F5E870C5
:10086000BDE8104000F08EBC0920704703460068C8
:1008700000B11844704700BF704700BF70B5044610
:100880000E46316C2046FFF775FF054688B9326C7D
:100890006261236932462146012098470828F0D03A
:1008A000072806D12846316CFFF7E6FF301D00F01F
:1008B00001FC14F063FE00BF2DE9F0470D1DD0F8D8
:1008C0000C80D0F81890074614460FCDADF5727D18
:1008D0000DF10C0CACE80F000FCDACE80F000FCD04
:1008E000ACE80F0095E80F0002AE4FF0000E8CE868
:1008F0000F00C6F800E020E0336C7B614FF4F0722B
:1009000031467AA8FFF75CFC3B697AAA3946504623
:100910009847889B73642146CDE9006905463B46AC
:100920003A460120C0470446E0B94FF4F0727AA974
:100930003046FFF745FC082D1AD1316C3846FFF7D9
:1009400019FF09345FFA84FA05460028D4D0B36B46
:1009500073643A46CDE900693B464AF01001012034
:10096000C04700B1092528460DF5727DBDE8F08726
:10097000072DF7D12046316CFFF77EFF03A800F06A
:1009800099FB00BF406C7047F0B5CB6B0B6401F175
:10099000040C0E460546BCE80F00F9B001AC0FC4CC
:1009A000BCE80F000FC4BCE80F000FC49CE80F00A8
:1009B0004FF0FF3784E80F00009706E02B696A4686
:1009C000294698470828044608D110992846FFF779
:1009D000D1FE0028F2D0092079B0F0BD6846FFF7BB
:1009E00017FF062CF7D131462846FFF747FF00BF17
:1009F000C160D96B82611964002219465CE700BFAF
:100A000070B5C66843690B64AEB903690A4604460B
:100A10000D46014602209847072805D008280FD127
:100A200029462046FFF72AFF3046296CFFF724FFAE
:100A3000281D00F03FFB0122FFF73EFF14F09EFD52
:100A400014F09CFDC2681AB1CA6B0A64002233E735
:100A50009AE700BF704700BF836801460BB10120D1
:100A600018477047012912D009D873B90F2A0CD83A
:100A700000EB820218465368009A136070470339EE
:100A8000012994BF012002207047022070470846C8
:100A9000704700BF00B585B00A46002303A9009146
:100AA0001946FFF7DFFF039805B05DF804FB00BFB0
:100AB000012912D009D873B90F2A0CD800EB820093
:100AC000009A12684260184670470339012994BFA2
:100AD000012002207047022070470846704700BF7F
:100AE00010B584B0002303AC039200940A46194663
:100AF000FFF7DEFF04B010BD70B5D36B136402F1D5
:100B0000040C05460C46BCE80F00ADF50E7D0DF15A
:100B10005C0EAEE80F00BCE80F00AEE80F00BCE8CA
:100B20000F00AEE80F009CE80F004FF0FF368EE894
:100B30000F00169610E0FFF7D3FF214616A8A8472E
:100B4000034616AA6946082083B9049B98470528DE
:100B500006460CD0092809D026996846FFF70AFEF8
:100B600003466A460C2116A8002BE4D0092616A8D5
:100B7000FFF74EFE30460DF50E7D70BD2DE9F04FAE
:100B8000CC6C89B01E4654F8043B06940D461746BB
:100B900000F00308002E79D01A0C1B0405938DF881
:100BA0001D200223D2B204EB82048DF81C302B6D81
:100BB000B8F1020F08BFAC6B13F001030CD005A90C
:100BC000384600F079FB18B9082009B0BDE8F08F6D
:100BD000092009B0BDE8F08FD4F800A0BAF1000FE9
:100BE000EDD0019300F008030293022E4AD0B4F82E
:100BF00000A0B4F802900434AB6C29F0010B0F2173
:100C000038469B44FFF746FF834539D82AF0010355
:100C10009B44834594BF002001204FEA490303F021
:100C200002030AF0010A43EA0A03012B49D0022B0E
:100C300032D0002BCCD1B8F1000F02D0002840F008
:100C4000CD800434D4F800A0BAF1000FCDD105A9AD
:100C5000384600F031FB0028BAD1019B002BB3D0FD
:100C60000F213846FFF716FF0E2102463846FFF7E0
:100C700037FF38466A4A0F21FFF732FF0720A8E7FF
:100C80000020CAE7D4F804900834B5E71B020593A6
:100C90000323ADF81C308AE7236823F0004BB8F13A
:100CA000000F45D128B1029A002A5CD0BBF1000F99
:100CB00074D0002B00DA04340BF1010B04EB8B042D
:100CC000C0E7B8F1000F19D1B0B163682268991C70
:100CD0004FEAD2723FF47CAF05F158010133049121
:100CE00000F09080201DFFF7C1FD04AB01462846AF
:100CF000AFF3008000285BD10834A3E70D2138460C
:100D0000D5F82090FFF7C6FE8145F5D1AB6A9C422D
:100D1000F2D12046FFF7E2FC0F2102463846FFF7EA
:100D2000DFFE38462A460021FFF7DAFE072050E7AB
:100D30000D213846D5F82090FFF7ACFE814501D053
:100D40002368B6E7AB6A9C42FAD104230022C5E9C6
:100D50000B23E318C5F828B06B632368002B59DB1D
:100D600001230193A8E705F15803CDF80C8004F1A5
:100D7000040AB04691461E460EE050460496FFF720
:100D800075FD0022014604AB284609F101090AF16C
:100D9000040AAFF30080E0B9D945EED10D21384601
:100DA000FFF778FE049BAC62C5E90803062010E754
:100DB00081460D213846FFF76DFEB9F1020F28621A
:100DC00025D12B46049A43F82C2F6B62AC62062087
:100DD000FFE646462368DDF80C806AE72046FFF709
:100DE0007DFC04340246AC6328461446AFF3008011
:100DF00000283FF4EDAE384622460F21FFF770FE83
:100E00000720E6E60D213846FFF744FE2862049BE2
:100E10006B62DBE70BF1010004EB80007AE700BFB7
:100E2000000000000023A9E60123A7E60223A5E6AF
:100E30002DE9F0430646C3B015461C46042900F2CE
:100E4000BF80DFE801F09E57BD2D0300002C40F06D
:100E5000B780102A00F2B4800368D80600F1F98048
:100E600020AF384600F098F9B46B394600234FF0B4
:100E7000010C0CFA03F22A42204603F1010303D0CD
:100E800050F8042B0A600446042B01F10401F0D150
:100E90003846B46300F076F9002043B0BDE8F08333
:100EA000032C40F08D8094B204EB1243102B4FEAD8
:100EB000124500F2858003681F0700F1D28020AF41
:100EC000384600F03DF9B26B07EBC50154B10B4653
:100ED000D01A01EBC401E4001D5843F8045B8B42B7
:100EE000FAD122443846B26300F008F9002043B03A
:100EF000BDE8F083012C4FEA124895B25CD0052C76
:100F00005ED108EB0509B9F1200F59D8B8F10F0FE0
:100F100079D9A946002D40F08A80B36B6DB320AF1C
:100F20004FF0000907EBC807043F03EBC50553F872
:100F3000041B47F8041FAB42F9D1B9F1000F0FD0E1
:100F40006F464146102938BF102107EBC101843993
:100F500003EBC90553F8040B41F8040FAB42F9D178
:100F6000012C00F08680B8F10F0FB56347D9B9F1B5
:100F7000000F02D0684600F0B9F8002043B0BDE889
:100F8000F083ECB9806B23461FFA82FC0124371DE5
:100F900004FA03F212EA0C0F014604D051F8042BB4
:100FA00047F8232008460133102BF1D115F40055E2
:100FB000E3D1B063284604E008EB0503102B03D906
:100FC000022043B0BDE8F083B8F10F0FF8D83368C2
:100FD000DA0706D5304623F0030340F8483B00F01B
:100FE00079F820AF384600F075F8B36B002D97D133
:100FF0001D460435B563384600F068F8BDE720A803
:1010000000F06CF8B3E7B9F1100F40D9A9F110095D
:101010003368D90708D523F00103304643F00203B3
:1010200040F8483B00F05EF8B9F1000F32D0336869
:101030005A0720D4B8F10F0F25D96F463846C8F1AA
:10104000100500F057F8002DB36B7FF77AAF20AF93
:1010500068E723F01003336006F5E87000F09CF8B1
:10106000FEE623F00803036000F5A87000F068F8BE
:1010700025E720AFBDE7304623F0040340F8D03B1E
:1010800000F038F8D6E720A800F02CF8D5E74FF0AC
:101090000009BDE7B8F10F0F3FF63FAF20AF38466C
:1010A00000F020F8B36B002D7FF43AAF384600F023
:1010B00015F862E700F1340191E838009C46A64635
:1010C0004CF8045D90E8FF0FE54600BD90EC210B65
:1010D000704700BF80EC210B704700BF90EC200BE5
:1010E000704700BF80EC200B704700BFD0EC200B96
:1010F000704700BFC0EC200B704700BFF0EC02014E
:10110000F0EC0211F0EC0221F0EC0231F0EC0241C3
:10111000F0EC0251F0EC0261F0EC0271F0EC0281B3
:10112000F0EC0291F0EC02A1F0EC02B1F0EC02C1A3
:10113000F0EC02D1F0EC02E1F0EC02F1704700BFFC
:10114000E0EC0201E0EC0211E0EC0221E0EC023103
:10115000E0EC0241E0EC0251E0EC0261E0EC0271F3
:10116000E0EC0281E0EC0291E0EC02A1E0EC02B1E3
:10117000E0EC02C1E0EC02D1E0EC02E1E0EC02F1D3
:10118000704700BFB0FC0181B0FC0191B0FC01A12F
:10119000B0FC01B1704700BFA0FC0181A0FC01912F
:1011A000A0FC01A1A0FC01B1704700BFEC4600B556
:1011B0002DE900502DE9FF1F4FF000032DE90C0031
:1011C00001A9FFF7E1FBDDF840E012B0704700BF76
:1011D000EC4600B52DE900502DE9FF1F4FF000034C
:1011E0002DE90C0001A9FFF70BFCDDF840E012B07F
:1011F000704700BFEC4600B52DE900502DE9FF1FF8
:101200004FF000032DE90C0001A9FFF71BFCDDF8EE
:1012100040E012B0704700BFEC4600B52DE9005029
:101220002DE9FF1F4FF000032DE90C0001ABFFF784
:10123000DFFBDDF840E012B0704700BFEC4600B5C0
:101240002DE900502DE9FF1F4FF000032DE90C00A0
:1012500001AAFFF751FCDDF840E012B0704700BF73
:10126000027A03467AB9427AA2B14168013A10B4CF
:101270004272086803220C1D1A7202025C60000EA2
:1012800010BC1A6070470068013A1A7202021A60B4
:10129000000E7047B020704700B585B0002303AA48
:1012A000009219460C22FFF7DDFB039805B05DF8AC
:1012B00004FB00BFF0E700BF2DE9F043054685B011
:1012C0000E464FF000083046FFF7CAFFB02804462C
:1012D00000F0BA80070620D500F0F003802B4DD037
:1012E000902B36D0A02B60D0B02B74D0C02B00F048
:1012F0008B8000F0F803D02B0BD100F007020132F5
:10130000052342F4002201212846FFF791FD002821
:10131000D9D0092005B0BDE8F0838300DBB21F1DE2
:101320000DF10C0900231946CDF800900D22284636
:10133000FFF798FB039BCDF8009060064CBFDF1BC6
:10134000FF1800230D22194628460397FFF7B0FB2C
:10135000B9E700F00D030D2BDBD003AF002300F045
:101360000F02194600972846FFF77CFB00230097E1
:101370000D2219462846FFF79BFBA4E73046FFF7EE
:101380006FFF24022043B0F5004FC2D004010023B8
:10139000A2B219462846FFF74BFD0028B9D114F434
:1013A000004F18BF4FF001088DE7C24302F007035A
:1013B0004FF47F621A41010702F47F624FF000038D
:1013C00048BF42F4804219462846FFF731FD002805
:1013D0003FF479AF9DE7B1283BD0B22800F093806D
:1013E000B32841D000F0FC03B42B92D000F00702E8
:1013F0000132012342F4002219462846FFF718FD66
:1014000000283FF460AF84E7C6284AD0C72854D0EC
:1014100000F0F803C02B63D0C82868D0C9287FF437
:1014200078AF3046FFF71CFF020300F00F0002F414
:10143000702201300243012105232846FFF7F8FC02
:1014400000283FF440AF64E7B8F1000F18D0002047
:1014500060E73046FFF704FF024600283FF459AF2B
:1014600010F0F003C8D054E73046FFF7F9FE02034E
:1014700000F00F03013302F470221A430123BBE78B
:1014800003AC43460E22414600942846FFF7EAFA91
:10149000009443460F2241462846FFF709FB404689
:1014A00038E73046FFF7DCFE020300F00F0301339C
:1014B00002F470221A4303239EE73046FFF7D0FE62
:1014C000024600283FF425AF10F0F0037FF421AF6F
:1014D00004212846FFF7ACFC00283FF4F4AE18E7DF
:1014E00000F00F020132032342F4202284E7304649
:1014F000FFF7B6FE00F0F00200F00F0310320133E8
:1015000043EA023297E700230DF10C090D22194638
:10151000CDF800902846FFF7A5FA3046FFF7A0FE69
:1015200002064FF002040CD5039B00F07F00A040A0
:10153000184403903046FFF793FE030604F10704B6
:10154000F2D4039BCDF8009000F07F02A24003F597
:1015500001731A440023039219460D222846FFF70F
:10156000A7FAB0E610B5C26C536884B04FF0030C14
:1015700008321C0208461B0E01A9019402928DF844
:101580000CC08DF80D30FFF797FE04B010BD00BF02
:1015900008B5FFF78FFE806C08BD00BF08B5FFF7E8
:1015A00089FEC06CC379023300EB830008BD00BF25
:1015B000704700BF00200CF039BE00009FED010A0B
:1015C0000CF034BA0000C842012103200BF0CABF5E
:1015D000022108B508460CF0DFFA064B064A1880CF
:1015E000064B188000231370054A1370BDE80840AD
:1015F000FFF7EABF42220020F92500204022002008
:10160000F8250020022170B508460CF0C5FA1A4CE6
:101610001A4E2080022103200CF0BEFA2388328863
:10162000174D9B1A1BB2142B2B7820DD73B90720A2
:101630000CF020FA28B108200CF01CFA08B90CF0C4
:1016400093FA96200CF05EFA01232B700D4D2B7847
:101650007BB904200CF010FA022108460CF09CFA29
:10166000014602200CF0FAF901232B7001E0002B57
:10167000ECD12388338070BD40220020422200201C
:10168000F9250020F825002008B5FFF79DFFBDE8EB
:10169000084069200CF04CBA1148124902680060F9
:1016A0008A4218D0002103E00F4B5B5843500431AD
:1016B0000E480F4B42189A42F6D30E4A02E000231E
:1016C00042F8043B0C4B9A42F9D301F081F900F047
:1016D000CBF97047FEE70948D0F800D040680047D2
:1016E000FC9F0020EFBEADDE387101080000002035
:1016F000B8070020B8070020F82B002000D8FF1FF3
:10170000FEE70000F0B5C24EC24FC34C87B002F0F6
:1017100061FA01F0C1FA01F00FFD01F06FFD3378BD
:1017200043F001033370BD4B4FF47002C3F88820BF
:1017300001F082F9386005F053FF01F02BFB0FF048
:101740000DFF0CF007FE402001F02EFB0146B448CF
:1017500007F0A2F8607904F1100105F041FD1422B0
:10176000002101A813F0F4FD4FF4802001F01CFBD0
:1017700010B9AC4B01221A703378AB48AB4D43F033
:10178000040333700FF0BCFDA9480FF0B9FD002031
:101790000FF06EFBA7480AF045FA00232B8094F85F
:1017A000EF2094F8F730B4F8F010A3480AF0C2FC28
:1017B00018B92B8843F002032B8094F8F8000AF044
:1017C00023FD18B92B8843F020032B8011F00EFB6A
:1017D00018B12B8843F480732B8010F0E2F818B90D
:1017E0002B8843F080032B803B68012B02BF2B88A2
:1017F00043F040032B80288808B105F047FF337879
:101800008E4D43F0020333704FF400532B854FF499
:101810008043AB610F27AB8A9BB283F40053AB824A
:10182000AB8A9BB283F48043AB82AB8A9BB283F4D6
:101830000043AB82192005F01EFF013F192005F07F
:101840001AFF17F0FF07E6D14FF48043AB614FF466
:101850000053AB614FF40043AB61082001F05EFD23
:1018600008B10AF091FA04F0A5FA6D4807F032FFCA
:10187000B4F8DE10724802F0FDFE724B7048196831
:101880007D3108F0F7FD0FF031FF08F05BFD05F04A
:1018900087FE6D4B18606379052B03D14FF47A7086
:1018A00009F01AFD02F0A6FC4FF47A700AF078FBFA
:1018B000C82011F097F911F0A1F911F083FA10F096
:1018C000C7FF624A137843F008031370604A137825
:1018D00040F6020023F00203137001F065FA10B124
:1018E0005C4809F07FFE01F055FA4E4B01221A7058
:1018F000337863F07F0333700BF0A8F90CF0BAFB78
:10190000FFF75CFE10F068FE4FF4967005F0B3FE32
:1019100010F064FF6279182A9DBF4F4BD34003F04B
:101920000103002302208DF80E3006F073FF8DF8BE
:101930000900022001F038FA8DF80A00402001F079
:1019400033FA8DF80C004FF4005001F02DFA8DF8A9
:1019500004004FF4004001F027FA8DF807004FF41F
:10196000006001F021FA20B194F82B01C31E584207
:1019700058418DF808004FF4803001F015FA8DF8C9
:101980000D00012001F010FA8DF80500082001F08B
:101990000BFA8DF806004FF4802001F005FAB4F838
:1019A000E0308DF80B00ADF810304FF48050B4F8F3
:1019B000D430ADF8123001F0F7F918B1B4F8DC30DA
:1019C000ADF81230BDF8103094F87C01B3F5FA7F11
:1019D00084BF0023ADF8123010F0BAF901A80FF05F
:1019E00073FF05F019FC1D4B1B780BB105F080FF50
:1019F0000BF0AAFF0CF050F9194B93F9000088BBCB
:101A000006210BF0FBFF02210A200BF0B7FF29E0B3
:101A1000FA250020C00700201C08002000ED00E08F
:101A2000AC0900200726002000300140442200209D
:101A30000038004004090020000900200008004888
:101A40004C09002018080020F80700200B26002071
:101A50000C2600204409002000410001D627002068
:101A60009400002007B0F0BD08B5FFF74BFE00F072
:101A7000C1FEFCE7074B01881B68B3F85C200A44F1
:101A8000A3F85C204188B3F85E200A44A3F85E20E6
:101A900001F000BC1808002008B5174BB3F9082165
:101AA00042B1B3F90A212AB1B3F90C3113B1134B86
:101AB0001B78BBB9012001F043FC09F013FCA8B16D
:101AC0000AF074FA90B1002001F044FC002001F00B
:101AD0004BFC78B90A4B1B6801205BB9BDE8084094
:101AE00001F042BC012001F035FCE6E7002001F0E6
:101AF00027FCEBE708BD00BF1C0800208600002083
:101B0000981000202DE9F04FB54AB64B1768B3F98D
:101B100006307A892DED028B934289B0C0F25B8149
:101B2000B3F5FA6FFC79BDBF9B1A13FB04F3C2F542
:101B3000FA62C4F16404BCBF93FBF2F3C3F1640422
:101B4000A94BAA4DB3F83E81A94BD3F800E0A54BB1
:101B50000693A84B0593A84B0493A84B03933B1DF6
:101B6000F446002064220793069B33F9029B0693F8
:101B7000A9EB080303F2F31140F2E636B14200F29A
:101B80002C81002BB8BF5B42022800F059819EF8DF
:101B9000151119B19942B4BF5B1A00239849B3FBE0
:101BA000F2FB0E4631F91BA00BF1010136F91110C1
:101BB0004FF69C761BFB0636A1EB0A01714391FBA5
:101BC000F2F1514429800799095C11FB03F38D4917
:101BD00093FBF1F364339BB2634393FBF2F31CF882
:101BE000011F059E594391FBF2F106F8011B9CF879
:101BF0000B100596049E594391FBF2F106F8011B68
:101C00009CF8161004965943039B91FBF2F103F8DC
:101C1000011B03937C4B022814BF1C549A70C145CE
:101C2000B8BF2B8800F10100BCBF5B422B800328AA
:101C300005F1020598D102F0E9FC6A4D30B1B5F921
:101C4000062040F2DC539A42C8BFEB806F4B1B78F2
:101C500013B16F4B1B88EB80634CB5F90600B4F8E9
:101C60004011624E4FF4FA6201F007FDB4F84031C2
:101C70004FF47A72C01A64245043C3F5FA63B0FB80
:101C8000F3F0644B90FBF4F2571C33F9121033F964
:101C900017306FF063075B1A07FB0200434393FBA7
:101CA000F4F30B44F3805C4B5C4C1B78002B00F08E
:101CB000F18023785B0740F1ED800AF051FF30801E
:101CC0000AF054FF7080564B1B885F062FD5554B8A
:101CD0001888554B1B88C01A00B201F033FDF0EE96
:101CE000408A01F0B3FCB0EE408AB0EE680A01F021
:101CF0004BFCB6F9023006EE903AB6F9003007EE2A
:101D0000103AF8EEE66AB8EEC77A67EE007A20EE8F
:101D1000660AE6EE887AA7EE080AFDEEE77ABDEEDF
:101D2000C00A10EE103A338017EE903A738002200A
:101D300001F03AF83D4E50B13D4A3168136845F222
:101D40000720CB1A834202DD116009F07BFC4FF4BF
:101D5000006001F029F868B1364A3068136845F22E
:101D60000721C31A8B4205DD21781060C1F3800181
:101D700009F0E0FC3068A0F5A443083B45F20722D7
:101D800093420BDDB5F90620237829490092294AB0
:101D900009681268C3F3800309F09EFD05F050FD49
:101DA00023785D074FF008007BD501F0C9FA0720C2
:101DB00001F0D0FA062001F0CDFA06F09BFD1E4B93
:101DC0009B680BB11D48984709B0BDEC028BBDE87C
:101DD000F04F0BF0F9BF6424B2E64FF4FA73D3E688
:101DE00010080020782300201C080020D8220020A2
:101DF0001808002017260020142600201126002095
:101E0000062300200CFEFFFF0E260020AC2700203A
:101E100096000020E0220020CE2700200C26002083
:101E2000622200208C22002000000020FC070020FD
:101E3000E0070020DC070020181500205C220020AD
:101E40009EF8161119B19942B4BF5B1A0023B3FB77
:101E5000F2F63D4906F1010B31F916A031F91B10DC
:101E60004FF69C7B16FB0B36A1EB0A017143374EF4
:101E700091FBF2F196F9EE605144764211FB06F1C6
:101E8000334EB180B97911FB03F3324993FBF1F37F
:101E90006433A4E60AF070FE4FF0FF300BF044FB11
:101EA00011E701F057FA2C4B1B68D80710D42B4AC6
:101EB00023781278110702D5294A1278CAB923F07B
:101EC00001030720237001F045FA062001F038FADB
:101ED000022001F049FA234D00B32A789AB11F4B32
:101EE0001B781A071DD5022001F034FA00232B704D
:101EF00017E043F001030720237001F021FA0620C8
:101F000001F028FAE4E718484FF496710BF08AFEC6
:101F100020B1012314482B700BF0A6FE2B78002B68
:101F2000DDD1FFF7B9FD30B108F0F8F8237823F0E0
:101F30000103237041E72378DB0702D508F0EDF8B1
:101F40003BE708F0EBF838E7F82200201C080020F7
:101F5000D82200200CFEFFFF241200200B260020B8
:101F60000526002004260020700E002010B5234A0C
:101F70001378590705D523F005030420137005F0E5
:101F80003DFC1F4B1B7813B11E4B00221A701E4BD9
:101F90001E4A00241C701E4B1C70012313701D4A26
:101FA00014701D4A14701D4A13701D4B1C701D4B7C
:101FB0001C701D4B40F2B6321A601C4B78221A80FE
:101FC0001B4B40F214521A801A4B1C601A4B1C60B7
:101FD0001A4B04201C6001F0BDF9052001F0BAF98C
:101FE000174B1C70174B1C70174B1C70174B1C7039
:101FF000174B1C70BDE810400AF0B0BD0C26002045
:10200000AD270020A200002002260020A100002011
:10201000AC270020AB270020AA270020A00000202A
:10202000A9270020A82700209C000020980000205D
:102030009600002034150020E8070020E407002067
:102040009E2700209D2700200626002050260020E5
:102050004F26002008B525490B7813F0010F03F037
:10206000040203D122480068012838DC21480078A6
:10207000002834D01AB1BDE8084010F0A5BE1E4AB1
:102080001268500131D49A072AD443F004030B702C
:102090001A4B1A782AB901221A7005F09BFA184BCC
:1020A0001860184B1B78C3B1174B184AB3F90030AE
:1020B000138005F08FFA164B186005F08BFA154B5C
:1020C00093F888214FF47A7302FB0300124B1860D7
:1020D000BDE80840052005F091BB104BE5E722B9AB
:1020E000BDE80840012005F08FBB08BD0C2600208C
:1020F0009C1000200526002024120020022600202B
:10210000E4070020C2270020BC250020000000209A
:10211000E80700201C080020F40700208C22002083
:10212000094B1A782AB100221A70084B01221A7042
:102130007047074A137883F00103137013B10C2022
:1021400005F05CBB0D20FBE700260020FF250020EA
:1021500001260020194A1A4B11781B6810B591B15D
:102160001849097849070ED51749B1F906001749EA
:10217000B1F84011884206DD13F0010101BF144897
:10218000117032240480DB030BD5124B1A782AB964
:10219000114A127812B90E4A3221118001221A70A6
:1021A00010BD0D4A1378002BFAD0064B1B7813F0A4
:1021B0000403F5D11370094BF0E700BF012600209E
:1021C000241200200C260020782300201C08002068
:1021D00058220020FE25002000260020FF25002098
:1021E0002B4BB3F9043040F2DC529342D4BFD31AE4
:1021F000A3F2DC53B3F5967F10B5264A41DA264B9D
:102200001B8803F04403002B3BD013786BB1234BA6
:10221000B3F90430032B2EDD9B10452B2ADC002361
:1022200013701F4B1A881F4B1A801D4B18881D4BAB
:102230001B88C01A83B200B210F1B30F02DA03F5A3
:10224000B47318B2B328C4BFA0F5B47000B21E2294
:102250006FF01D0101F011FA134B144C1B68144967
:102260005B7A13FB00F000B24FF4C872A08001F05B
:1022700004FAA08010BD002BB8BF03339B105B4253
:10228000CBE701231370064B1A88064B1A80F1E73F
:1022900078230020FD2500206222002072250020E6
:1022A0008C2200205E22002018080020D822002066
:1022B00070FEFFFF70B51A4C23685A1C012B226078
:1022C00010D0022B18D03BB9082001F027F818B124
:1022D0001449881F09F064FD2368042BC4BF002340
:1022E000236070BD042001F019F80028F4D00E4BD3
:1022F000186810F0ADFCEFE7FFF7CEFB0B4D68B9A7
:10230000094E306802F04AF8094B93F9003013B9CE
:1023100030680AF087FD01232B70DDE70023FBE71F
:10232000D807002024090020FC07002005260020F3
:10233000940000202DE9F843974C984D206808F050
:10234000F5F94FF4805000F02FFD20B12B68DA072B
:1023500001D4FFF70BFE206808F052FB4FF48070A9
:1023600000F022FD50B122688D4B9A4204D902F050
:1023700091F908B902F09AF902F0D6F9894CB4F84B
:10238000DE1004F5987005F013FD064618B903F049
:10239000A1FC03F0ADFCDFF8409299F800305B0738
:1023A00025D5102000F000FD08B37F4B1B78DF0619
:1023B0001DD405F0F7FC7D4F002800F0858094F8CF
:1023C0008831002E6ED14BB1794BD3F8008005F0E7
:1023D00001F9A8EB0008B8F1000F05DB102005F0AB
:1023E0000DFA01233B7002E0FFF7C0FD3E7094F848
:1023F000873194F886216F48003B18BF0123003ACB
:1024000018BF0122314605F0F9FC042000F0CCFC95
:1024100008B1FFF79FFE684E30687D3005F05CFE26
:10242000664B1B7843B93068CD3006F0C1F8644B79
:102430006049186806F040F82B689E0747D50220CF
:1024400000F06CFF00284DD1012000F057FF012360
:102450002A68510752D5002B50D0012000F04EFFC2
:10246000584B1B889A0704D403F034FC022000F078
:1024700037FF99F800305B0708D4524B1B8803F0F4
:1024800044031BB1504B1A88504B1A80022000F0B5
:1024900045FF002836D02B68DF0649D4042000F021
:1024A0002DFF50E04BB105F095F894F888214FF4DA
:1024B0007A7302FB03003E4B18603B78002B96D0EA
:1024C00005F086F900238DE7002EF6D186E74FF45C
:1024D000807000F069FC0028B6D002F0E1F8002816
:1024E000ADD1B1E7374B1B88D80701D50023AFE743
:1024F00003F0F0FB012000F0F3FEF7E7022000F00C
:10250000FDFEB6E7082000F009FF0028C3D12B68C4
:102510001B054FF480703AD500F0E2FE6379082B7A
:1025200001D00E2B36D1BDE8F843402000F0E6BEC6
:10253000244B1B885E0706D4042000F0D1FE224BFA
:102540001A88224B1A802B68980613D51D4B1B88BE
:10255000590602D4402000F0C3FE2B685A0641BF42
:10256000194A11881A4A118013F00803194A05D133
:102570001370CCE7402000F0C1FEEEE71378002B8B
:10258000C5D1114B1988124B19800123F0E700F0D7
:10259000B5FEC3E7BDE8F883FC0700202412002045
:1025A000404B4C001C0800200B260020FC2500207E
:1025B000F40700204C0900201808002053260020B2
:1025C00010080020622200208C2200205E220020C1
:1025D00000000020062600200C2600202DE9F743ED
:1025E0000DF1060008F018FA2B4B2C481B882C4CD8
:1025F00000EE103A0121B8EE400A04F079FFBCEE7B
:10260000C00ADFF8ACC0BDF806009CF8002010EE50
:10261000103A9BB2B0FBF3F0411CB4F9003009B2A0
:10262000A2B3DFF888801F4F1F4E002538F902EB58
:10263000B6F90090B7F9002026F802EBAEEB0909D5
:1026400001355A43042D92FBF1F24A4427F8022B3C
:10265000ECD100238CF8003003B2002B19DD124FAF
:10266000104E124D2380002037F9024B36F9022B11
:10267000013013FB02F2042892FBF1F2A4EB0202F8
:1026800025F8022BF0D103B0BDE8F083013B1BB26B
:10269000E3E700232380F6E75A220020D407002036
:1026A000462200204822002050220020D82200206C
:1026B0000326002038B53D4B3D4D1B783D4A35F98A
:1026C0001330128893422FDB3B4A128893422BDC53
:1026D00007F06AFF20B30123384C394A2370137086
:1026E00005F048FB2478002C48D004F059FF354B06
:1026F000354A18601368C31A002B17DB334B344C70
:102700001B6803441360237833B1FEF761FF002395
:102710002370304B01221A70BDE83840FEF772BFBB
:1027200007F048FF0028D6D10023D5E72A4A2B49D5
:102730002B4800231478ECB1032B06D051F823402A
:1027400020F8134001330132F4E7CB68EB80254BCE
:102750001B781BB1244B1A88244B1A80244D00246B
:1027600015F8013B13B1E0B20BF086F90134062CE9
:10277000F6D138BD0133042BE5D1E8E7154D2B78B0
:10278000002BF6D0144B154A1C705C709C70DC70EA
:10279000144B146054609460D4601C70FEF774FF96
:1027A0000B4B2C7001221A70E3E700BFD9270020E1
:1027B00078230020C4250020C2250020D727002030
:1027C00037260020F0070020EC070020B80000208A
:1027D000B6000020D1270020D2270020401D002075
:1027E000D8220020D0270020BE2500205E22002015
:1027F000C82700202DE9F341614E05F087F83068C5
:1028000007F006FF00F0BAFD306807F081FF0028EE
:1028100000F0A680FFF78EFD5A4B01221A705A4B2A
:102820001B782BB1042000F079FD08B101F06AFBA0
:10283000564D04F0B5FEAB895549306023B10A68A6
:10284000821A002AC0F29980524C034420680B601F
:102850005C3004F059FB04F0A3FE4F4A4F49136863
:102860003060C31A0B804E4B1060187810F00400D3
:1028700003D04C4B1B6813B1012009F06FFF236894
:1028800093F85630D3B1DFF84481474F0026B8F9AA
:10289000003000EE103A2368384693F85610B8EE30
:1028A000C00A04F025FEBDEEC00A013610EE103A53
:1028B000032E28F8023B07F10407E8D1FFF722F9BD
:1028C00095F83D310BB1FFF789FEFFF7F3FE2E4B74
:1028D000012208201A7000F021FD08B1FFF780FCEA
:1028E000042000F01BFD00283DD0304B1B8803F472
:1028F0000273002B3DD105F055FA48B12C4BB3F9CA
:102900000620B5F840319A42DEBF2A4B00229A8059
:10291000236893F81C0148B1244B1B889B0705D002
:1029200004F0F2FB234BDA881044D880224B206855
:1029300022490093224BB5F8FA201C68096800F17F
:102940005C03A04704F0D2FC1E4B1B780BB104F0D3
:102950007DFC01F0ADFF02B0BDE8F0410AF0B2BD70
:10296000FFF7A8FC64E7102000F0D8FC0028BCD1D9
:10297000C1E7154801F0F4F9BDE702B0BDE8F08108
:10298000FC07002003260020FB2500201C08002057
:10299000D007002018080020F80700205A22002045
:1029A0000C26002034150020C407002062220020DD
:1029B00078230020D82200204C0900201008002095
:1029C0002C00002007260020AA09002072250020E4
:1029D0001549D1F8883043F47003C1F88830134B9F
:1029E0001A6842F001021A605868114A02405A609F
:1029F0001A6822F0847222F480321A601A6822F473
:102A000080221A605A6822F4FE025A60DA6A22F0C2
:102A10000F02DA62186B074A02401A6300229A60BA
:102A20004FF000638B60704700ED00E00010024043
:102A30000CC07FF8CCFC00FF84B00023019302930C
:102A4000039303F1804303F504331A6842F48032A0
:102A50001A601A6802F400320292019A013201925D
:102A6000029A1AB9019AB2F5A04FF2D11A6812F47B
:102A7000003218BF01220292029A012A2BD10222AF
:102A80000392164A122111605A685A605A685A60B5
:102A90005A6842F480625A605A6822F47C125A6082
:102AA0005A6842F4E8125A601A6842F080721A605A
:102AB0001A689201FCD55A6822F003025A605A68DB
:102AC00042F002025A605A6802F00C02082AFAD157
:102AD000039804B0704701230393F9E700200240F4
:102AE00010B50F4B1A786A2A18D1598840F24C5207
:102AF000914213D11A79BE2A10D193F84A25EF2AB0
:102B00000CD1084C002213F8011BA342104682EAA4
:102B10000102F8D1431A5842584110BD0020FCE789
:102B200000F003084CF503080023038000234360F2
:102B300083604FF0A063C360704741F62A6303804F
:102B40004FF4487343804FF41673C38070470000FE
:102B5000F8B5212204460021013012F0F9FB0B48A0
:102B6000234604F1200505210122002610F9017BEE
:102B70009F709971DA715E7203F8081FAB42F5D14C
:102B80000223A38152232370A280F8BDAC5A01080E
:102B9000014B1878704700BF0826002010B5064C7E
:102BA000206805F04FFD206805F068FD20680349A6
:102BB000BDE8104005F07ABD10080020EC080020A8
:102BC00037B5324D324CFFF7E9FF05F033FD2A6887
:102BD000214602F17D0005F019FD04F1260009F0FF
:102BE000D9F92B68187803F093F804F1AE0001F0DE
:102BF00027FD04F12C0008F08FFC04F1400008F0E0
:102C000091FC04F16003009304F1BA0204F1BE03E5
:102C1000214604F1080004F0D1FA638C29681D48AC
:102C200091ED190A07EE903AA38CF8EE677A01F15C
:102C30006802C0ED017A07EE903AB1F86030038087
:102C400091F87C308370F8EE677A94F8B9300373AA
:102C5000B1F81A31C0ED027A03F07EF828682346F5
:102C600000F2151200F16C0101F048F8286800F23A
:102C7000151109F06DFF28680AF004FA28686C3015
:102C800003B0BDE830400FF0A7BF00BF1808002018
:102C9000EC0800200008002070470000F8B507F09D
:102CA0008FFC234B6A221A7040F24C525A80BE228B
:102CB0001A71EF22A3F84A2540F24D51002218461E
:102CC000013929D180F84B2509F08AFC032440F210
:102CD0004C57342009F09AFC1648154E09F0C2FCF6
:102CE00004281DD1002505F1006056F8041B00F5ED
:102CF0007C3009F0D5FC042812D10435BD42F2D154
:102D000009F07CFCFFF7ECFE10B9042004F0BEFCD7
:102D1000BDE8F84007F06CBC13F8014B6240CFE708
:102D2000013C14F0FF04D4D109F068FCEDE700BFCA
:102D30001C08002000F00308064B042828BF0220CE
:102D40001870054B0C2202FB0033044A1360FFF796
:102D500025BF00BF08260020420D002010080020DB
:102D600008B504F0BDFA322004F085FC074B1B685F
:102D70005A0309D5064B9B685B0305D4BDE80840A0
:102D800040F2DC5004F077BC08BD00BF14080020FE
:102D90001C080020024B9A68024B1A60704700BF63
:102DA0001C08002014080020034B1B681840003842
:102DB00018BF0120704700BF14080020024A936822
:102DC00003439360704700BF1C0800202DE9F84FB3
:102DD00040F24C522DED028B0021BA48BA4FDFF879
:102DE0005483BA4C12F0B4FAB64A02F5E2733B606F
:102DF000B74B00261E7002F22653C8F800306A2333
:102E000013704FF40060032311465371FFF7D6FF90
:102E10008020FFF7D3FF0220FFF7D0FF4FF40060C0
:102E2000FFF7CCFF4FF48070FFF7C8FF4FF07E53E1
:102E3000C1F81031C1F81431C1F81831C823A1F814
:102E4000FA30A44B81F824654FF48030C1E93B038C
:102E50004FF0000BA04BC1F8F43001F59470C1F8AD
:102E60001CB1C1F820B1C1F824B1A1F8E46081F827
:102E7000E660C1F8FC60A1F80061C1F8E86081F883
:102E8000F860FFF75AFE01F5DA70FFF74DFE40F2E9
:102E9000DC53A1F83E31914BA1F83861C1E95043B0
:102EA0008A460C460D464FF01909032ECCBF01236C
:102EB00000238AF848310CBFB5F84401B5F83E014B
:102EC00040F6CA0240F2EE2100F0D7FB0136A0F234
:102ED000EE20122E90FBF9F0C0B28AF849010AF1F7
:102EE000020AE2D14FF4F0534FF480797C48A5F800
:102EF0003A31A5F83C9107F065FA7A4BC5F888316C
:102F0000794BC5F8D030A3F1FA73643BC5F8D430DF
:102F100003F5602303F5CB73744AC5F8D830744BBE
:102F20007448A5F8869100264FF0C8094FF0010AB1
:102F3000C5E9372385F87C61A5F88C9185F88EA1C9
:102F4000FFF706FE40F6AC53AB816B4A3B68AE73AD
:102F50001A6002F10342A2F51D22A2F29D725A608C
:102F60006649674AC3F844B0C3E90212654A1A6168
:102F70002D225A7541F61E62DA82634A9A6145F241
:102F800005329A8364229A7740F201521A845F4A8A
:102F9000DA631A645E4ADA624FF07E529A635D4ADF
:102FA000DA644B2283F850205B4919634FF07F505D
:102FB0004FF4FA72B1EE048A5963A3F852205862B2
:102FC000986283ED128A5E6540F2DC53A5F83035D5
:102FD00044F25A13A5F826353223C5F82835A5F84A
:102FE0002C6585F82E6538685C3008F083F93B68FD
:102FF0004A49A3F85A6040F60822A3F8602042F636
:103000002802A3F86820152283F86C20444A1A6726
:10301000444A5A67444A83ED198A9A6783F87CA028
:10302000424807F09DFC3F68282387F817314FF48A
:103030004873A7F81A314CF60A0387F8156187F828
:10304000166187F8186187F81C61A5F87E3140F297
:103050001453A5F8803185F88261A5F884910C237A
:10306000013B44F810BFFBD1314C39464FF490720C
:103070002046FDF7A5F84FF49072A0183946FDF7E9
:103080009FF8D8F800301A68C4F84E225A68C4F87D
:1030900052229A68C4F856221A68C4F85A225A680A
:1030A000C4F85E229A68C4F86222012385F83C3392
:1030B000022385F85C34BDEC028BBDE8F84FFFF7C6
:1030C000EDBD00BF1C080020180800204C046C0750
:1030D000082600202A005802FA0020007503430841
:1030E00088090020059601014C04D007B405320080
:1030F000204E3200AC090020012828962828783C70
:103100000A0A46000002210A1E321E008FC2F53C48
:103110000000204000004040CDCCCC3E4C090020B7
:103120009A99193FF6287C3F1F856B3F3C57010851
:10313000000B00201008002008B5FFF7D1FC18B9DB
:10314000BDE80840FFF742BE08BD0000024A936890
:1031500023EA0003936070471C08002008B5FEF7BF
:1031600029FA23498B6846F209021A4203D14FF427
:103170000050FFF723FE8B68DB0703D54FF40050A8
:10318000FFF7E4FF8B68580409D50820FFF7DEFF3E
:103190004FF40050FFF7DAFF0120FFF7D7FF8B68ED
:1031A0001A0706D54FF40050FFF7D0FF0120FFF7B4
:1031B000CDFF8B689B0402D54020FFF7C7FF01239A
:1031C00081F8B53191F886312BB191F88A3113B17C
:1031D000002381F88A31074807F0EEF8064805F029
:1031E000D1FA20B9BDE808400348FFF7B1BC08BDDB
:1031F0001C0800204C090020AC09002010B5FFF786
:103200006FFC10B9032004F041FA194C07F0D8F90B
:10321000184940F24C522046FCF7D2FF94F824356E
:103220001549022B88BF00234FF4907288BF84F8A1
:103230002435534303F5E272234422440A6093F891
:103240001C22022A84BF002283F81C220B4B1A7016
:103250000C2303FB02440A4B04F226541C60FFF7C4
:103260007DFFFFF7ADFCBDE8104007F0C1B900BF1E
:103270001C08002000F00308180800200826002081
:103280001008002008B5FFF7B9FFBDE8084001208D
:1032900004F0BABA08B5FFF701FDBDE80840FFF732
:1032A000F1BF000010B5074B044683F82405FFF773
:1032B000F5FCFFF7A3FF601CC0B2BDE8104004F0AE
:1032C000A3BA00BF1C080020014B00229A6070477F
:1032D0001C080020014B9868704700BF1C080020A4
:1032E00010B5054C238818439842208002D0012055
:1032F00004F08AFA208810BD6222002010B5064C26
:10330000238823EA00009842208002D0012004F0A4
:103310007BFA208810BD00BF62220020034B1B688F
:103320001840003818BF0120704700BF680D00200A
:10333000024A136803431360704700BF680D002002
:10334000034A0123118883400B431380704700BF59
:1033500060220020034A01238340108820EA0300F2
:103360001080704760220020034B1B8843FA00F056
:1033700000F00100704700BF602200202DE9F041FD
:10338000714F724C04F026F93B682268C31A9342CD
:1033900006462CDB6E4B1B784BB36E4D2B780133FE
:1033A0002B706D4B188800F076FA08281CD8DFE8DF
:1033B00000F02E05BFAB9FB7824B9200DFF8A081D3
:1033C00098F80050642323609DB1002101200EF085
:1033D00009F9012102200EF005F9012100200EF06B
:1033E00001F9002388F80030236833443B60BDE8CE
:1033F000F081294601200EF0F5F8294602200EF052
:10340000F1F8294628460EF0EDF80123EAE7DFF847
:10341000508198F800506423236055B1012108467B
:103420000EF0E0F8002108460EF0DCF80121022041
:10343000D5E7294601200EF0D5F8294628460EF09A
:10344000D1F829460220DEE7444B1B7873B1642390
:103450000021012023600EF0C5F8002102200EF0AB
:10346000C1F8012100200EF0BDF8BDE778232360EC
:103470002B7803F00303022B14D0032B19D0012B5C
:103480000AD0012100200EF0ADF8002101200EF03D
:10349000A9F800210220E6E7012100200EF0A2F8A1
:1034A0000121F3E7012100200EF09CF80121012009
:1034B00032E00021E6E7294B1B78002BD6D0022111
:1034C0006423084623600EF08DF8002101200EF0E1
:1034D00089F80021C6E7214B1B78002B84D00121FD
:1034E0000846642323600EF07DF800210846CEE7ED
:1034F00064230021012023600EF074F800210846A7
:103500000EF070F80221C5E764230021012023603A
:103510000EF068F8002108460EF064F80121B9E7C2
:1035200064230021022023600EF05CF80221CDE725
:10353000642323602B78DB07A3D5002108460EF017
:1035400051F80021B3E700BF0C000020100000205C
:10355000A800002009260020602200200A26002062
:103560000800002008B5002102200EF03BF80221DF
:1035700000200EF037F8022101200EF033F864200D
:1035800004F079F8EFE70000FDEEC07A17EE903A0C
:103590002033402B43D8DFED237A9FED237AB4EE1E
:1035A000E70AF1EE10FA28DCDFED207A9FED1E7AB3
:1035B000B4EEE70AF1EE10FA22D4DFED1D7AB4EE94
:1035C000E70AF1EE10FA1EDD30EE670A37EEC00AA8
:1035D00060EE007ADFED176A9FED177AA7EEA67A04
:1035E000DFED166AE7EE876A9FED157AA7EEA67AF9
:1035F00020EE276AA6EE070A704730EE470ACEE7AC
:1036000030EE070AD4E79FED0F7AB4EEC70AF1EE69
:1036100010FA44BF30EE270A37EE400AD8E79FED94
:103620000A0A7047DB0F4940DB0FC940DB0F49C076
:10363000DB0FC93F9A7C2E36FAAF4FB93587083C6D
:10364000A4AA2ABEDB0FC9BF00000000DFED027A8A
:1036500030EE270AFFF798BFDB0FC93F80EAE0731F
:10366000A3EBE0738B4206DB002801DD401A7047B4
:1036700002D0084470470020704703468B4208463A
:1036800003DB9342A8BF134618467047F0EE407A1A
:10369000F4EEE07AF1EE10FAB0EE600A08D4F4EE3F
:1036A000C17AF1EE10FAD4BFB0EE670AB0EE410A6B
:1036B000704700230361704703690133012B0361E5
:1036C00008D1DFED117A80ED010A80ED000AC0ED2E
:1036D000027A704790ED006A07EE903A70EE466A03
:1036E000F8EEE77A86EEA77AD0ED027A37EE067A20
:1036F00030EE470A80ED017AE6EE807AB0EE470AB6
:10370000C0ED037AE1E700BF000000000369012B70
:10371000C1BF03F1FF3307EE903A90ED037AF8EE64
:10372000E77ACCBF87EE270A9FED010A704700BFFA
:103730000000000008B5FFF7E9FFBDE8084010F001
:1037400033BB000007EE900A9FED030AF8EEE77A1C
:1037500027EE800A704700BF35FA8E3C30B5039DD6
:10376000441AEB1A5C43521A94FBF2F4E41A6019FF
:1037700030BD90ED005A08B5B0EE450AFFF766FF80
:10378000F0EE405AB0EE450AFFF7FEFE90ED015A0A
:10379000F0EE404AB0EE450AFFF758FFF0EE403A2F
:1037A000B0EE450AFFF7F0FE90ED023AB0EE405A57
:1037B000B0EE430AFFF74AFFB0EE404AB0EE430ACC
:1037C000FFF7E2FE25EE806A63EEC07A24EE847A8B
:1037D000C1ED017AF0EE467AE5EE077A25EE843AFD
:1037E00064EE806AC1ED037AF0EE437AE5EE667A24
:1037F000A5EE067AE5EE436A23EE844A64EEE34AD8
:1038000065EEA35A81ED004A81ED025AC1ED047ABA
:10381000C1ED054AC1ED066A81ED077AC1ED085A8E
:1038200008BD00B58BB00246084601A9D2ED001ACA
:10383000D2ED012A92ED022AFFF79BFFDDED047A1B
:103840009DED017A62EEA77AE7EE217A9DED077A87
:10385000E7EE027A9DED027AC2ED007ADDED057A9F
:1038600062EEA77AE7EE217A9DED087AE7EE027A1A
:10387000C2ED017ADDED067A62EEA72ADDED037A6C
:10388000E7EEA12ADDED097AE7EE822AC2ED022AEF
:103890000BB05DF804FB00230122104207D1013375
:1038A0005200092B92B2F8D14FF6FF70704798B2D0
:1038B00070470000B4EE400AF1EE10FA0FD6B7EEF2
:1038C000007AB4EEC70AF1EE10FA0BDABFEE007A16
:1038D000B4EEC70AF1EE10FA07D910F007BA9FED5F
:1038E000040A70479FED030A70479FED030A704773
:1038F00000000000DB0FC93FDB0FC9BFDFED027A1C
:1039000020EE270A704700BF35FA8E3C0023028163
:10391000016043604381838101EB4202914200D107
:10392000704721F8023BF9E78389026830B50589C1
:1039300044899D4201BF32F8145043685B1B4360C9
:103940001CBF0133838122F8141043680289194493
:103950004389416001339BB29A4298BF002343815F
:10396000808910B1B1FBF0F080B230BD2DE9F84391
:10397000089F002B05460E460CBF4FF020094FF064
:1039800030093B4613F8011B1446013A09B1002CDB
:10399000F8DCA04604E049462846B04708F1FF3865
:1039A000B8F1000FF7DC24EAE4743846804618F8D2
:1039B000011B19B9E41B2044BDE8F8832846B04731
:1039C0004046F3E703685A1C026019707047000014
:1039D000014B186803F0B8BD740D00202DE9F047C5
:1039E00088B0002506460F4603921C46A846039B56
:1039F0005A1C0392197869B3252903D03046B84779
:103A00000135F4E79A1C0392CDF8108058783028DD
:103A100002BFDA1C03929878A0F13003DBB20CBF2E
:103A20004FF001094FF00009092B04D804AB0A221A
:103A300003A900F028F96C2840F08580039B5A1CEC
:103A400003921A78642A4CD00FD8252A75D005D84D
:103A5000002ACCD1284608B0BDE8F087582A4FD0BC
:103A6000632AC4D114F8041BC8E7A2F16E03D9B2CB
:103A70000A29BCD80A2BBAD801A151F823F000BFFB
:103A80003F3B0008EF390008EF390008EF39000824
:103A9000EF390008313B0008EF390008AD3A000863
:103AA000EF390008EF390008013B000801220DF151
:103AB000140A54F8040B53467AB100220A2100F08C
:103AC00097F8CDF800A04B46049A39463046FFF7E8
:103AD0004DFF05448BE70022E9E70A2100F0B9F821
:103AE000EFE701230DF1140A54F8040B514623B1FA
:103AF00000F0A4F8E5E70023F4E700F0ACF8E0E715
:103B0000A2F158004242424105AB54F8040B102187
:103B100000F06EF805AB0093D5E7A0F158014A42DA
:103B20004A4154F8040B05AB102100F092F8F1E77C
:103B300054F8043B00930023C6E725215EE754F8C0
:103B4000043B1D6053E76428D5D00AD82528F4D05B
:103B500003D800283FF47EAF49E75828DDD063281A
:103B60007FE7A0F16E03DAB20A2A3FF640AF0A2BD4
:103B70003FF63DAF01A252F823F000BF3F3B0008E3
:103B8000EF390008EF390008EF390008EF39000875
:103B9000313B0008EF390008D73A0008EF39000838
:103BA000EF3900081B3B00080EB40FB505AB0190C0
:103BB00053F8042B0649039301A8FFF70FFF019B5D
:103BC00000221A7004B05DF804EB03B0704700BF28
:103BD000C5390008034B044A1A60044B00221A60DE
:103BE000704700BF700D0020D13900086C0D002017
:103BF000F0B50124B0FBF4F58D4203D200261CB9C8
:103C00001C70F0BD4C43F5E7B0FBF4F5B4FBF1F7E5
:103C100004FB15002EB9002D03DC8C420CD33C466E
:103C2000EDE7092D08DD002A0CBF572437242C446A
:103C300003F8014B0136F2E73024F8E700280B4681
:103C4000BEBF2D2203F8012B404200220A21FFF7BC
:103C5000CFBFFFF7CDBFFFF7F1BF03463038C2B289
:103C6000092A0FD9A3F16102052A02D8A3F157004E
:103C70007047A3F14102052A02D8A3F1370070472B
:103C80004FF0FF3070472DE9F0410E681546984619
:103C9000044600272046FFF7E0FF431C05D10E60D5
:103CA0002046C8F80070BDE8F081A842F7DC16F89D
:103CB000014B05FB0707EDE790ED037AD0ED007AA5
:103CC00037EE277AD0ED017A77EE277AC7EE276AAA
:103CD000D0ED027AC0ED046A30EE676AE6EE867ACD
:103CE000B0EE670AC0ED027AF7EE007A77EEE67A78
:103CF00067EE877AC0ED037A7047000010B50F4C6D
:103D000020600F4801600F4802600F4A0F481160A1
:103D10000F4A13600F4B104A1A604FF07C525A60E2
:103D20004FF07E5100229A60D9601A610B4B1860E7
:103D300059609A60D9601A6110BD00BF240E00203E
:103D4000280E0020200E0020180E0020CDCCCC3DE7
:103D50001C0E00205C0E00200AD7233C480E0020D9
:103D60002DE9F84F544B554C1B78554D13F0100C62
:103D700009D090F900206388B5F9001001FB0233E7
:103D80006380BDE8F88F4F4BDFF868911A684E4E9C
:103D90009178D278B9F90630DFF85CA1DFF85C8160
:103DA000002A4CD0B6F90000484F1B1A83EAE37290
:103DB000A2EBE3728A4230DD01228AF800206FF024
:103DC00031015022062093FBF0F0FFF756FC3B88B0
:103DD000184400B2E08038803D4B1A78002A68D041
:103DE000B9F9061040F2DC52914262DC4FF47A736A
:103DF000E380384BD8F800201A60374B2A681A60E5
:103E0000364BB6F900201A60354B9AF800201A603C
:103E1000344BB4F906201A60B3E79AF800302BB19E
:103E2000314B8AF800C01B68C8F800302F4B196866
:103E30002B684A8809881844FFF71FFCC9E740F23D
:103E4000DC529342CCBFA3F2DC52D21A8A42DFF892
:103E5000B0B0274F20DDA3F2DC500028BCBF6FF4C8
:103E6000BB629818801078226FF06301CBF80000D5
:103E7000FFF703FC0123CBF800003B708AF8003009
:103E80001A4BB6F9000019682B684A88098818444B
:103E9000FFF7F3FBE0809FE79AF8002000233B70D8
:103EA000CBF80030002AEBD00F4A1268C8F8002087
:103EB000E4E700221A709CE70B260020D82200209D
:103EC000400E0020200E00206622002064220020E8
:103ED0004F260020A80D0020A40D0020A00D0020DA
:103EE0009C0D0020980D00207C0D00201C0E002051
:103EF0002A000020782300200D2600203C0E002000
:103F0000340E002038B5124B1B681B0704D4BDE8E3
:103F100038400820FFF7F2B90E4B0F4D1C8814F003
:103F200008040DD10820FFF7DBF90C4B1A680C4B85
:103F30001A6040F2DC532B800A4B1C600A4B1C6059
:103F40000A4B2A881A800A4BDA880A4B1A8038BD35
:103F50002412002062220020662200207C0D002016
:103F60003C0E0020440E0020400E00206A2200205B
:103F7000D822002068220020B0F90030002BB8BF02
:103F80005B429BB2B3F5487F0BD2B0F90200002828
:103F9000B8BF404280B2B0F5487F2CBF002001205E
:103FA00070470020704700002DE9F04180462DED5C
:103FB000028B4D48FFF7E0FFB0EE408AF0EE608ADA
:103FC0000446002800F08780484F494D3B785B0746
:103FD0005FBF484B1A68484B1A60484B1B78002B50
:103FE0007ED1454B46491868424B1B684FF4FA7224
:103FF000C01AFFF742FB0521FFF730FB414B424956
:104000001860424B18602B681B79584348BF7F30BB
:104010004FF49672C011FFF730FB3D4B3A493D4ECD
:10402000A0EB0808C3F800802B68987A43465843F1
:1040300048BF1F304FF496724011FFF71EFB3B78CC
:104040003060044613F0040018BF2B68324F1CBFC9
:104050005B7D3868314918BF08FB03004FF4161226
:104060003860FFF70AFB38600028BCBF00F5FF503E
:104070001F30431373602B6893F8203007EE903A9B
:1040800038EE288AF8EEE77ADFED258A67EE887A3F
:1040900004EB603467EEA87A9622FDEEE77A6FF0C3
:1040A000950117EE900AFFF7E8FA2B6893F8203095
:1040B00007EE903AF8EEE77A241A67EE887A9622AD
:1040C00067EEA87A6FF09501FDEEE77A17EE900A99
:1040D000FFF7D3FAB060BDEC028B2046BDE8F0815B
:1040E000104B186899E700BF982200200C2600208A
:1040F000240E00207C0D00203C0E00202A00002011
:104100000CFEFFFF24000020D4FEFFFF900D0020D6
:104110008C0D0020800D0020440E00200080DAFF6E
:104120000000003B340E002070B5174B174D1848A7
:104130001C682B88B0F90020164901331BB2A2423B
:104140001E460BDA9C42DCBF00231E4601EB8601B3
:104150002B8081ED000A0132028070BD0E482B8059
:1041600002889C4202F1010212B204D100232B808A
:1041700081ED000AF0E701EB8301944281ED000A32
:10418000EAD100230380E8E71C000020180000208B
:104190006E220020DC0D0020702200200A4A0B490C
:1041A000B2F9003001EB830191ED000A08490133B7
:1041B00009681BB28B42138004BF00231380054A99
:1041C0001388013B1380704770220020DC0D002013
:1041D0001C0000206E220020044BB3F90000044BA9
:1041E0001B68C31A58425841704700BF6E22002016
:1041F0001C000020124B134AD3ED007A12491348D9
:10420000F5EE407AF1EE10FA4FF0000303D113609F
:104210000B6003607047F0EE086A86EEA77A80EDC7
:10422000007A27EEA77A67EE877A86EE876AF7EE3E
:10423000006A86EEA77A81ED006A82ED007A704707
:1042400014000020C80D0020CC0D0020D00D00204F
:1042500008B5BDEEC07A1D4B83ED007AB6EE007A4C
:10426000F4EEC70AF1EE10FAF0EE407A2DDCFFF71B
:10427000B3FF18B3FFF792FF154B164993ED007A81
:10428000154B164A30EE070A77EEC07AC3ED007A76
:10429000B1F90030002BB8BF5B429BB21E2B07D890
:1042A000B1F90230002BB8BF5B429BB21E2B09D97B
:1042B0000B4B1360BDE80840FFF79CBF094B93ED23
:1042C000000AD9E74FF08043F3E708BD940D0020C2
:1042D000C00D002092220020B40D00201400002008
:1042E0000000A040C40D002038B50E4D2DED028B0E
:1042F0000EF0B0FC2B68834204460FD0C31A08EEC0
:10430000103ADFED097AB8EE488A28EE278A0EF0D7
:10431000EDFCF0EE480AFFF79BFF2C60BDEC028B32
:1043200038BD00BF2C0E00206F12833A014B186875
:10433000704700BF7C0D0020104B10B501200024F9
:104340001C6001F071FD0E4A002313700D4A40F20B
:10435000DC5111800C4A0D4913600D4A13600D4B5E
:104360004FF07E521A6059609C60DA601C610A4B03
:104370001A6059609C60DA601C6110BDB80D0020A5
:104380002000002066220020440E0020CDCCCC3D31
:10439000400E00205C0E0020480E0020704B2DE9DE
:1043A000F0411C6842F20F72041B94422DED048B05
:1043B00042D9186044F620639C4202D9012001F0E2
:1043C00033FD684D2B782BB1674B1B785B0701D40D
:1043D000FFF7B2FFFFF788FF644B654E1B68654F20
:1043E0009FED651ADFED650A002BC9BF644ADFED5A
:1043F000657AD2ED026A07EE903AC4BFF8EEE66A3B
:10440000B8EEE77A604BC8BFC6EE877A93ED000A34
:10441000C6ED007A27EE800AC7ED007AFFF736F97D
:10442000012086ED000A01F0FFFC584AB2F9003085
:10443000052B05DC01331380BDEC048BBDE8F08156
:1044400007EE904ADFED526A524B534ADFF8808103
:10445000F8EE677A87EEA67AD3ED006A4F4B93EDBC
:10446000006A4F4B26EE866AD3ED007AE6EE077AB5
:10447000C3ED007A4B4B93ED006A4B4B26EE866AF8
:1044800093ED000AA6EE070A92ED006A474A66EE2F
:10449000866A92ED008AA6EE878AD6ED006A82EDE2
:1044A000008A77EEA67AB6EE006A67EE877AF0EEBB
:1044B000406AE7EE866A3E4A3E4ED2ED008AE6EE5C
:1044C000878A30EE270A38EE288AC2ED008A3A4AF7
:1044D00083ED000A82ED008A0FF056FBB0EE480A29
:1044E00009EE100A0FF050FBB0EE680A05EE100A54
:1044F000FFF71AFE3148B8EEC90AFFF7DDFB304876
:10450000F0EE405AB8EEC50AFFF7D6FBB0EE408A8F
:10451000B0EE650A0FF038FBB0EE480A0446306092
:104520000FF032FB274BD8ED000A186097ED000A18
:104530002046FFF739FD244B052118603B683068A1
:10454000C8F80030FFF78AF8204B18603368002B5A
:10455000B8BF5B42C82BC4BF01232B706CE700BF00
:10456000780D0020200000200C260020C81000201C
:10457000AC0D0020D80D002000004844000048C4C5
:10458000DC10002000000000C01000206C22002081
:1045900000247449B40D0020D00D0020C80D002067
:1045A000BC0D0020CC0D0020B80D0020C00D002057
:1045B000C40D0020300E0020B00D0020480E002059
:1045C0005C0E00207C0D0020400E0020380E0020E4
:1045D000D40D0020014B1860704700BF3C0E002036
:1045E000024B034A1B680344136070477C0D002094
:1045F0003C0E0020014B1868704700BF7C0D002066
:10460000014B1868704700BF300E0020094BB3F90A
:1046100000305A1C0CD0084A106810F0080008D06E
:10462000064A1068323B8342CCBF0020012070470D
:104630000020704728000020241200207C0D00205C
:10464000094B02781860C821084B642012FB001245
:104650005A6007480022C3E90222C3E90422C3E9E1
:1046600006221A8409F000BB800E0020840E002070
:10467000700E0020044B1860044B054800221A807D
:104680009A7009F0F1BA00BF7C0E0020840E002061
:10469000700E0020014B9878704700BF840E0020F8
:1046A000014BD878704700BF840E0020014B0122D7
:1046B0009A707047840E0020044A4FF47A73B0FB5E
:1046C000F3F0936803449360704700BF840E0020AA
:1046D00008B502F07FFF034B0122986083F8212088
:1046E00008BD00BF840E002008B502F073FF054B23
:1046F000DA689860801AC82884BF012283F82120D4
:1047000008BD00BF840E002008B502F063FF054B12
:104710009A68D860801A5A68904284BF002283F851
:10472000212008BD840E00202DE9F74FDFF878B175
:104730009BF80220002A00F0AA80564E9BF82140E8
:10474000DFF868813578D8F80030DFF858A1019398
:10475000012C05F0040514BF032700274FF00009C2
:104760009BF8201005290DD8DFE801F00323274A24
:10477000627E85B1012C05D00520FEF7E1FD464B98
:1047800002221A70002F00F08280384603B0BDE884
:10479000F04F03F033B8019B5A014FF4806005D508
:1047A000FEF79EFD0022CBF81020EBE7FEF7A6FDFA
:1047B000F8E7012CD4D105221FE0012C04BF05220B
:1047C0008BF8202065B1354A1268B2F90E00344AE0
:1047D000508090801080334800684088D0800F4619
:1047E00002F0F8FEDBF81420904201D8002D4AD1E7
:1047F00042F21072CBF81C2003228BF82020AFE786
:10480000327842F002023270FDF7B0FB02F0E2FEB5
:10481000DBF81C200244CBF8182004228BF820205F
:104820004FF48060FEF76AFD0520FEF793FD97E7E1
:10483000012C11D102F0CEFEDBF818208242A1D269
:1048400003F0B0FA18B9D8F80020D3079AD4327818
:1048500022F002023270AEE702F0BCFEDBF81C2050
:104860000244CBF818208DE702F0B4FEDAF80020FD
:104870008BF82090D2888BF80390642303FB02000E
:10488000CBF81000CCE7012C3FF46AAF7AE703B015
:10489000BDE8F08F0C260020AD2700207C0E002004
:1048A00078230020800E0020840E00202412002097
:1048B00008B51E4B1B785A0737D51D4B1B78002BAC
:1048C00033D01C4B1B88DB072FD51B4AB2F90030B5
:1048D000002BB8BF5B429BB2B3F52F7F1BD8B2F958
:1048E0000230002BB8BF5B429BB2B3F52F7F12D8CA
:1048F0001249B1F90030002BB8BF5B429BB242F6BF
:10490000E062934207D8B1F90230002BB8BF5B4296
:104910009BB2934209D90A4B1B6833B90220FEF7B8
:104920000FFDBDE80840FDF721BB08BD0C260020A7
:10493000B40000206222002098220020A022002043
:10494000341500202DE9F04F2DED028BA549DFF83D
:10495000CC92DFF8CC82DFF8CCA28DB0CDE9092370
:10496000B1F90030B1F90220002BB8BF5B42002A38
:10497000B8BF52429BB292B2934238BF1346B3F5CE
:10498000FA7F28BF4FF4FA730593974B0293974B26
:1049900008930025964B0793CDE90355954B069355
:1049A000431C064601938B462F462C46924B1B8890
:1049B0009B0730D0022C2ED0099ABBF9000051423F
:1049C0004000FEF75AFE8D4B0A9A33F91430B17F3E
:1049D00032F91420C31A307A1344C1EB817CA1EB65
:1049E0008C025843C1EB8C014FF0640C90FBFCF03F
:1049F0000493FEF742FE049B0390DAF8000080491E
:104A0000184442F21072FEF738FECAF80000F37C38
:104A100043431B130493784B1B88D80703D599078E
:104A200001D4022C39D1BBF90070019B75491B7868
:104A300007EB8700000190FBF3F0B9F90030002B81
:104A4000B8BF0333A0EBA300D8F800304FF47A527C
:104A50001844FEF712FEB9F90030C8F80000002B28
:104A6000B8BF5B429BB2B3F5206F0AD8022C0BD1C2
:104A70005C4BB3F90430002BB8BF5B429BB2642B94
:104A800002D90020C8F800007D2390FBF3F0019BC1
:104A9000DD7A454348BF3F35AD11574B1B889A0718
:104AA00040F18E80022C00F08B80059B0498C3F5AA
:104AB000FA7203FB07F1039B03FB0211059B6B4397
:104AC0004FF4FA7C00FB023391FBFCF193FBFCF307
:104AD000B9F900204C48002A005DB8BF033292109B
:104AE00012FB00F26FF04F0092FBF0F20A4496F8CE
:104AF000551008EE102A51B144480B93B8EEC80A7D
:104B000000EB840002F0F4FC0B9BBDEEC08A089918
:104B100039F9022B31F902CB08910899B2EB0C0C50
:104B200021F8022C079A1168069A126848BF0CF106
:104B3000030C0A4402EBAC0200EE102A069A42F87B
:104B4000041B0692079A4FEAAC0042F8040B96F851
:104B50005410079251B12E480B93B8EEC00A00EBE7
:104B6000840002F0C5FC0B9BBDEEC00A18EE102AB3
:104B700091B2284A10EE100A125D504302462648B0
:104B800000789BB248BF1F32C2F34F120B4408BBE0
:104B90009B1A029A1380029B02330293019B0134F9
:104BA0000133032C019308F104080BF1020B0AF105
:104BB000040A7FF4FBAE0DB0BDEC028BBDE8F08FB4
:104BC000DB0701D5022C02D12B46394680E7DDE90F
:104BD00003137DE7022C01D01344DAE79B1A024A43
:104BE0009380D8E7D8220020862200207A22002055
:104BF000E40E0020D80E0020622200209222002025
:104C0000F0D8FFFF80C1FFFF17260020200F0020F3
:104C1000140F002011260020CF270020722500202D
:104C2000740F0020600F00202DE9F04F2DED028B56
:104C30008DB0CDE90921B2490B93B1F90030B1F93A
:104C40000220DFF8FC82DFF8ECA2DFF8FC92029190
:104C5000002BB8BF5B42002AB8BF52429BB292B24F
:104C6000934238BF1346B3F5FA7F28BF4FF4FA7367
:104C70000593A44B0893A44B0793A44B06930024DD
:104C800000F10C0305460193274626460494A346EB
:104C90009F4B1A8892072CD0029B099AB3F9000007
:104CA00051424000FEF7E9FC9A4BA97F33F91B20E3
:104CB0000B9B861A33F91B20287A1644C1EB817CA2
:104CC000A1EB8C027043C1EB8C014FF0640C90FBA4
:104CD000FCF0FEF7D2FC0490D9F800008E49304475
:104CE00042F21072FEF7C9FCC9F80000EE7C4643A0
:104CF0003613874B1A88D30701D590072ED5029B10
:104D0000DAF80000B3F90070019B844913F80B2C0A
:104D100007EB8704240194FBF2F4B8F90020002A81
:104D2000B8BF0332A4EBA20420444FF47A52FEF73A
:104D3000A4FCB8F90020019B002AB8BF524292B2ED
:104D4000B2F5206F88BF0020CAF800001C787D22D1
:104D500090FBF2F0444348BF3F34A4116C4B1A88D7
:104D6000910740F1C580059BC3F5FA7103FB07F07D
:104D7000049B03FB0100059B03FB04F24FF4FA7C48
:104D800006FB012292FBFCF3039390FBFCF0B8F9C5
:104D90000010634B002913F80BC0B8BF0331891012
:104DA00011FB0CF16FF04F0C91FBFCF10B1895F817
:104DB000551008EE103A41B15A48B8EEC80A00EB57
:104DC0008B0002F095FBBDEEC08A089B38F9021BF0
:104DD00033F9020B0893089A081A22F8021C079A62
:104DE00006991268096848BF0330114401EBA0011D
:104DF00000EE101A069941F8042B079A06918310C9
:104E000042F8043B95F85410079241B14648B8EE79
:104E1000C00A00EB8B0002F06BFBBDEEC00A039BE7
:104E2000424918EE102A11F80B101A4410EE103AED
:104E30004B431946029B48BF1F31A2EB61124FEA58
:104E40004B0002333A490293019B0A520BF10102D3
:104E50000133022A0AF1040A09F1040901934FF00F
:104E6000010B7FF415AF0A9B254A9B799488314E3C
:104E7000314AB06831490F3314FB03F4304BB3F9B6
:104E80000430002B4FEA2414B8BF0333A4EBA3076C
:104E9000AB7B07FB0300B060FEF7EFFB002CB8BF55
:104EA0006442332CA8BF0020264BB060EC781B78FE
:104EB0007C43032B4FEAA41409D9B5F85220B2F56C
:104EC000FA7F04D220465142FEF7D7FB0446B06871
:104ED0004FF480726FF0FF0140F34F30FEF7CDFBCF
:104EE000134B04449C800DB0BDEC028BBDE8F08FE9
:104EF000D30747BF049803960394384647E700BF9B
:104F0000D822002072220020C00E0020B80E0020FF
:104F10006222002092220020F0D8FFFF80C1FFFF14
:104F200017260020200F0020140F0020112600203B
:104F300086220020740F0020FEFFFF0F020000F009
:104F4000722500201A260020600F00202DE9F04F66
:104F50008BB0CDE906210893964B974A1B8813F036
:104F60000203064613D0B2F90030B2F90220002B3A
:104F7000B8BF5B42002AB8BF52429BB292B2934282
:104F800038BF1346B3F5007F28BF4FF40073019379
:104F9000894B0593894B0493894B0393DFF84C921B
:104FA000DFF850B2DFF850A2DFF8508206F10B03B1
:104FB00002930027059B834933F9024B0593049B19
:104FC00053F8040B049339F9023B002BB8BF0333A9
:104FD0006400A4EBA3034FF47A521844FEF74DFB90
:104FE00039F9023C029A002BB8BF5B429BB2B3F581
:104FF000206F049B88BF002043F8040C12F8013F87
:105000000292C5115D4312F80B3C5C43694B1B884F
:105010009B074FEAA5154FEAA41433D0059B069AC7
:1050200033F9020C51424000FEF727FB664B089A09
:1050300033F9173032F917206449C31AD8F8000041
:105040001344184442F210720993FEF716FBC8F895
:105050000000099BB27F307A02EB82025843514232
:10506000C011FEF70AFBD8F80020F37C5343019AE5
:10507000A5EB23355543241A6D12544305EB233514
:1050800000EB642439F9023C514A96F85510D25D80
:10509000002BB8BF03339B1013FB02F3A4EBA31444
:1050A00061B107EE904A4B48B8EEE70A00EB870083
:1050B00002F01EFAFDEEC07A17EE904A039A39F913
:1050C000023C32F9020B0392181A039A48BF0330CC
:1050D00022F8023C8110DBF80020DAF800304BF8AF
:1050E000041B4AF8042B134496F8541003EBA00356
:1050F00000EE103A41B13848B8EEC00A00EB870024
:1051000002F0F6F9BDEEC00A344B10EE102ADB5D5A
:105110002C445343A4EB6314314B23F817407B1CFE
:10512000022B08F104084FF001077FF443AF079BFF
:10513000214A9B799488214D2A4AA8682A490F332D
:1051400014FB03F4294BB3F90430002B4FEA241469
:10515000B8BF0333A4EBA307B37B07FB0300A8602E
:10516000FEF78BFA002CB8BF6442332CA8BF002096
:105170001F4BA860F4781B787C43032B4FEAA414E0
:1051800009D9B6F85220B2F5FA7F04D2204651422E
:10519000FEF773FA0446A8684FF480726FF0FF01BF
:1051A00040F34F30FEF769FA0D4B04449C800BB07E
:1051B000BDE8F08F62220020D8220020740F00206A
:1051C0007622002080C1FFFF92220020F0D8FFFF4E
:1051D00017260020200F0020140F00201126002089
:1051E00086220020FEFFFF0F020000F07225002043
:1051F0001A260020D00E0020C80E0020600F0020CC
:105200002DE9F04F2DED0A8B044687B090F854003D
:105210000593CDE90321002800F006823222012106
:10522000FEF72BFA07EE900A9FEDD57AF8EEE77AB3
:1052300087EE278AD34BD44A18880121FEF71DFA3E
:10524000D24B1B880AEE100ADFEDD1AAB8EECAAA2B
:1052500098076AEE2AAA38EE2A8ACAEE88BA40F17E
:10526000E681CC4AB2F90030B2F90220002BB8BF77
:105270005B42002AB8BF52429BB292B2934238BFFF
:105280001346B3F5E17F28BF4FF4E17307EE903A80
:105290009FEDC17AF8EEE77A87EE87CABF4B01939C
:1052A000DFF850B3BE4BDFF85093DFF85083BD4FAB
:1052B000DFF8D8A2029304F10C060025DFEDBA9ABC
:1052C000DFEDBACAB0EE69BA019B33F9022B019344
:1052D00008EE902AF8EEE88AAE4BF5EE047A68EE16
:1052E000A78A33F91530FDEEE88A00EE103ABAF8D5
:1052F0000030F8EEE88A990768EEAC8AB8EEC08A0A
:1053000054D078EE087A039AFDEEE77A514217EE10
:10531000900AFEF7B2F9A64B9FEDA66A33F9153055
:10532000C01A059B33F915301844A37F07EE103AD5
:1053300007EE900A237AB8EE477AB8EEE79AF1EED4
:10534000047A27EE277A07EE903AF8EE677AF1EEC4
:10535000476A67EE897ABDEEC77A67EE867A17EEFE
:10536000102AFDEEE77ABDEEE67A17EE900A17EE08
:10537000101AFEF782F997ED000AB3EE0E1AAAEEA4
:10538000890AFBEE0E0A0BEE100AFEF77FF987ED95
:10539000000AE37CDFED887A09EE903AF8EE699A2C
:1053A000B8EECBBA69EE809A69EEA79ABAF80030E7
:1053B000DA0700F14281019B33F9023C002BB8BFB0
:1053C0005B429BB2B3F5206F00F2348116F80B3CC0
:1053D000DFED7A6A98ED000A9FED791ADFED790A20
:1053E00007EE103A68EE266AB8EE477AC6EE877A7C
:1053F00077EEE87AAAEEA70AFEF748F988ED000AE8
:105400003378DFED717A09EE103AB8EE499ABAF8BE
:10541000003029EE009A9B0729EE279A0BD578EEEB
:105420004B7AB0EE4B8AA7EE8C8A79EE697AB0EEB1
:10543000699AA7EE8C9A029B94F8551013F8012BE9
:105440009FED627A029307EE902AF8EEE77AB0EECB
:10545000480A68EEE77AA7EE870A21B15C4800EBBC
:10546000850002F045F89BED007AEBEC018A78EEBE
:10547000C78AD9ED007A574B88EEAA7A5B5D08F1AE
:1054800004080437013630EE090A37EE677AE7EE92
:105490002B7A07EE103AB8EEC77AE9EC017A67EE9C
:1054A000C77A9FED4D7AA7EE870A0EF06DFB4B4B46
:1054B00023F815006B1C022B4FF001057FF404AF9D
:1054C000BDEECAAADFED467A94F85770454E1AEE43
:1054D000103A23F003030AEE103A2E4BB3F904807E
:1054E000049B9D792D4BB3F90430B8EECAAA00EEA7
:1054F000103ACAEE279ABAEECF0A002F00F0C58004
:1055000088EAE879E778A9EBE8790EF03DFB1FFA25
:1055100089F9354BDFED356A05FB09F595FBF3F5A8
:10552000643507EE100A7D43642395FBF3F307EE21
:10553000903AB8EEC77AF8EEE77A80EAE07367EE61
:10554000877AA3EBE07387EEA67AB3F5207F07EEA8
:10555000908AB8EEE78A38EE478A02DCB9F1640F28
:1055600070D90023B36094F85510002948D0B0EEEC
:10557000480A1F4801F0BCFFB0EE408A40E000BF7F
:1055800083F9223E5A220020A086010062220020D8
:10559000BD378635D82200200000E1437225002067
:1055A00017260020580F002000000000CDCC4C40F2
:1055B000922200206F12033C0AD7A33D0000A043B3
:1055C00000004043000040C30AD7233CA69B443B55
:1055D000200F002011260020F7CC923886220020D0
:1055E00000803B45740F00200CFEFFFF0000A0422E
:1055F000280F0020B00E0020A80E0020680F002009
:1056000038EE090ABDEEC00A10EE103A1BB200EEE9
:10561000103AB8EEC00A0EF0B7FA464B988007B0C1
:10562000BDEC0A8BBDE8F08F9FED438A02E69FED4B
:1056300043CA33E69FED410AE0E6B0EE699AB0EE68
:105640004B8AF8E608EB88031B0193FBF7F31B1A60
:1056500007EE903AF8EEE77AB368394967EEA97A2F
:105660004FF47A52FDEEE77A17EE900A1844FEF7EF
:1056700004F87D23B06090FBF3F0A37B58438011C6
:1056800007EE900AB8EEE79A6DE76D000EF07CFA2F
:10569000283515FB08F56D11281A002D07EE900A24
:1056A000B8BF6D42322DF8EEE78A40DCA37B254A75
:1056B000254907EE903AF8EE677AB36867EEA87A64
:1056C00067EEA97AFDEEE77A17EE900A1844FDF727
:1056D000D4FFB0604FF480726FF0FF014013FDF70C
:1056E000CCFFFDEEE87AE27817EE903A53439B1137
:1056F00007EE903A154B1B7809EE100A032BB8EE13
:10570000C99AB8EEE78A7FF62EAFB4F85220B2F508
:10571000FA7FBFF428AFFDEEC87A514217EE900A27
:10572000FDF7ABFF08EE100AB8EEC88A1BE7384653
:10573000CFE700BF86220020AF4C593C000000009C
:1057400080C1FFFFFEFFFF0F020000F01A260020BD
:105750002DE9F04F2DED088B87B0DFED9D7A059395
:105760009C4B189E1B88049109EE103A9A4B0292AA
:105770001B88B8EE499A13F0020F29EE279A0546C6
:10578000F7EE009A00F0E980F189002002F02AFF8C
:10579000F1890446012002F025FF95F85020002AE7
:1057A00000F0DE80002CB8BF64420028B8BF404241
:1057B0008442B8BF0446C4F5FA7407EE904ADFEDA0
:1057C000876ADFED870AF8EEE77A642387EEA67A28
:1057D000B3FBF2F307EE903A37EE697AF8EEE77A28
:1057E000B0EE690AA7EE270AB0EE691AFDF74EFF80
:1057F000B0EE40AA7B4BDFF828B2DFF828A2DFF832
:105800002892DFF82882784EDFED78AA019305F11F
:1058100024070024049B0433022C1B5DB2EE04BA5F
:1058200040F0A180704ADFED726A92880A3312FB61
:1058300003F207EE902AB8EEE77AC7EE267A6D4BB0
:1058400095F8551033F9143007EE103A6A4BB8EE5C
:10585000C77AD3ED036A019B0393E7EE667A1B7860
:10586000B7EC017AB0EE678A07EE903A27EE087A35
:10587000F8EEE77A67EE877AC7EEAA8A41B15F4809
:1058800000EB8400B0EE680A01F032FEF0EE408AD0
:1058900097ED027A9BED000A9FED591ADFED590A48
:1058A00069EE087A67EE877AA7EE8B0AFDF7EEFEBF
:1058B00089EE897ADAED007AD9ED006AABEC010A5B
:1058C00078EE677AAAEC018A27EE277AD8ED007A7B
:1058D000A9EC017AE8EC016A76EEA77A95F8541003
:1058E000B0EE40BA37EE870A21B1474800EB84009A
:1058F00001F0FEFDB0EE087AC0EE077A019B01339D
:105900000193039B1B78023697ED057A9FED3F1AB2
:10591000DFED3F0A67EE877A07EE103AB8EEC77AF6
:1059200067EE877A87EEAA0AFDF7B0FE78EE8B8ADB
:1059300038EE800A0EF028F936494FF47A72FDF7F6
:105940009CFE354B23F814000134032C7FF462AF26
:1059500007B0BDEC088BBDE8F08FB0EE69AA49E74F
:105960009FED1FAA46E7029AB6F900000393514241
:10597000FDF783FE294B33F91420059B801A33F978
:105980001420039B1044144A07EE900A1188F8EE85
:10599000E77A11F0010FC7EE8B6A04D0D5ED127AC9
:1059A00066EEA77A4BE732889FED116A143312FB3B
:1059B00003F207EE902AB8EEE77A8B07C7EE067A75
:1059C00042BF95ED137A66EE876AE6EE8A7A36E78D
:1059D000BD3786355A220020622200200000FA439B
:1059E000000000000E260020D82200200000C8423F
:1059F000000048427225002018150020200F0020CA
:105A000000007A4300007AC3140F00200000964380
:105A1000000096C318FCFFFF86220020922200207F
:105A2000680F0020080F0020FC0E0020F00E002060
:105A30002DE9F04F2DED028B89B0CDE904210693BD
:105A4000924B149E1B889907054640F1EC80F18922
:105A5000002002F0C7FDF1890446012002F0C2FDDA
:105A6000002CB8BF64420028B8BF40428442B8BF8F
:105A700004460523C4F5FA7090FBF3F0AB7F40B207
:105A8000DB1064226438584300210A2390FBF3F0B2
:105A90001044FDF7F2FD43B27D4C039301F09AFDF3
:105AA00023689FED7C7ADFF824A27B4EDFF82092FA
:105AB0007A4FDFF8F881C31A07EE903AF8EE677A6A
:105AC000774B67EE877AC3ED007A01F083FD754B63
:105AD0000293754B2060009501930024059B1A1DCD
:105AE000022C12F804B040F0A080704A6B499288F2
:105AF0000BF1140B12FB0BF252118A60019B57F849
:105B0000042BB3F90010009B30780029B8BF033193
